:10000000004000209D040000DD040000DF0400002B
:1000100000000000000000000000000000000000E0
:10002000000000000000000000000000E1040000EB
:100030000000000000000000E3040000E5040000F0
:10004000E7040000E7040000E7040000E704000004
:10005000E704000000000000E7040000E7040000DF
:10006000E7040000E7040000E7040000E7040000E4
:10007000E7040000E7040000E7040000E7040000D4
:10008000E7040000E7040000E7040000E7040000C4
:10009000E7040000E7040000E7040000E7040000B4
:1000A000E7040000E704000000000000000000007A
:1000B0000000000000000000000000000000000040
:1000C00010B5064C2378002B07D1054B002B02D02E
:1000D000044800E000BF0123237010BD3804002055
:1000E00000000000FC070000044B10B5002B03D0FB
:1000F0000349044800E000BF10BDC04600000000F6
:100100003C040020FC070000164B002B00D1144BD0
:100110009D46402292029A1A924600218B460F4633
:100120001348144A121A00F011FA0F4B002B00D09A
:1001300098470E4B002B00D0984700200021040068
:100140000D000D48002802D00C4800F0D1FA00F054
:10015000DBF92000290000F013F800F0C5F9C046D3
:100160000000080000400020000000000000000027
:100170003804002078040020F10600000107000088
:1001800080B500AF00F01CF800F04CF800F02AF841
:10019000031E07D0412000F087F8C04600F022F887
:1001A000031EFBD100F02EF8031EEFD0422000F01A
:1001B0007BF8C04600F026F8031EFBD1E6E70000FE
:1001C00080B500AFA023DB05054A00219950A0238C
:1001D000DA05ED23DB000021D150C046BD4680BDCD
:1001E0004407000080B500AFA023DA05A223DB009E
:1001F000D25880239B0213405A425341DBB218006D
:10020000BD4680BD80B500AFA023DA05A223DB0088
:10021000D2588023DB0413405A425341DBB218000A
:10022000BD4680BD80B500AF194AA023DB00002188
:10023000D150A023DA05EC23DB000121D150A0230B
:10024000DB05144A00219950114A134B1921D15052
:100250000F4A124B1821D1500D49A123DB00012276
:100260005242CA500A49A223DB0001225242CA501C
:10027000074A0B4B0B49D150054AA023DB00042150
:10028000D150034B01221A60C046BD4680BDC04616
:100290000020004064070000140500000C05000069
:1002A000240500000050270080B582B000AF020096
:1002B000FB1D1A700D4B01229A600C49FB1D1B7827
:1002C0000B4A8B50C046094A8E235B00D358002B43
:1002D000F9D0064A8E235B000021D150034B012246
:1002E000DA60C046BD4602B080BDC0460020004076
:1002F0001C05000080B500AF00F036F8031E06D0E4
:10030000134B144A1A60144B802212021A6000F038
:100310006BF8031E05D08023DA05C123DB00012121
:10032000D15000F087F8031E0ED00C4B1B68012B38
:1003300007D00A4B0A4A1A60C046084B1B68012BBB
:10034000FBD1084BC0221A60C046BD4680BDC046E6
:1003500004050040DFFF07C0186C004000EC0640B9
:100360007593000014EC064080B500AF1A4B1B6873
:10037000FF221340012B2AD1184B1B680F22134078
:1003800025D1174B1B68F022134006D1154B1B6873
:10039000F022134001D101231AE0114B1B68F02217
:1003A0001340102B06D10F4B1B68F022134001D1D4
:1003B00001230DE00A4B1B68F0221340302B06D1BD
:1003C000084B1B68F022134001D1012300E00023F9
:1003D0001800BD4680BDC046E00F00F0E40F00F0FD
:1003E000E80F00F0EC0F00F080B500AF0D4B1B687C
:1003F000FF221340012B11D10B4B1B680F2213401E
:100400000CD10A4B1B68F0221340402B06D1084B3D
:100410001B68F022134001D1012300E000231800E3
:10042000BD4680BDE00F00F0E40F00F0E80F00F0E3
:10043000EC0F00F080B500AF144B1B68FF22134097
:10044000012B1ED1124B1B680F22134019D1114BE7
:100450001B68F0221340A02B06D10F4B1B68F02223
:10046000134001D101230DE00A4B1B68F022134019
:10047000D02B06D1084B1B68F022134001D1012379
:1004800000E000231800BD4680BDC046E00F00F02C
:10049000E40F00F0E80F00F0EC0F00F003210A4831
:1004A00002680A430260094802680A430260084978
:1004B000084A094B9B1A03DD043BC858D050FBDCAB
:1004C000FFF718FFFFF720FE240500405405004009
:1004D000080800000000002038040020FEE7FEE7C6
:1004E000FEE7FEE7FEE7FEE710B50021040000F09E
:1004F0008DF8044B1868C36B002B00D09847200080
:1005000000F06CF9F807000070B50C4D0C4E761B2E
:10051000B61005D0002408CD01349847A642FAD180
:1005200000F05EF9074D084E761BB61005D000248A
:1005300008CD01349847A642FAD170BD2C040020A2
:100540002C0400202C04002034040020F0B5050009
:1005500083074AD0541E002A44D003000322CEB29F
:1005600002E00135013C3DD301332E701342F8D136
:10057000032C2FD9FF220A40150215432A041543E4
:100580000F2C35D92700103F3F093E01B4461E000D
:100590001A0010366644156055609560D5601032BB
:1005A000B242F8D10F260C2201373F012640DB1959
:1005B0003700224217D03E1FB608B400A4461A00E6
:1005C0001C1D644420C2A242FCD103240136B600A3
:1005D0009B193C40002C05D0C9B21C19197001337D
:1005E0009C42FBD1F0BD3400F4E714000300BFE7E8
:1005F0002700E0E7034B10B5002B02D0024800F0C3
:1006000077F810BD0000000001070000F0B5DE46DD
:100610004E4657464546E0B5334B83B01B680190C4
:10062000180000930F0000F07FF8304B1B681A0091
:100630000093A4235B00D658012299469346002ECE
:1006400030D07468651E2DD4C4235B009A460134F3
:10065000A4003419B24402E0043C013D22D3002F2F
:1006600004D080235B00E358BB42F5D17368226855
:10067000013BAB4232D000232360002AECD07368E8
:10068000514698465B46AB400968194215D19047E0
:10069000736843451ED14A46009B9B58B342DBD04A
:1006A0001E1ECED1104B186800F040F803B03CBCC1
:1006B00090469946A246AB46F0BD31008D31FF31E0
:1006C000096819420CD180230198E158904773685A
:1006D0004345E0D04A46009B9E58B0E77560CCE7A2
:1006E0008023E0589047D3E728040020F807000053
:1006F00010B5010000230022002000F019F810BD01
:1007000070B5074D074C641BA41005D0013CA30035
:10071000EB589847002CF9D100F068F870BDC0463E
:1007200034040020380400207047C0467047C0469B
:10073000F0B5D6464F464646C0B5264F82B00600B5
:100740003868924698468946FFF7EEFF224B1B68B1
:100750000193A423019A5B00D558002D2ED06C681C
:100760001F2C30DC002E0FD1631C6B604B46023413
:10077000A40038686351FFF7D9FF002002B01CBC09
:1007800090469946A246F0BD882251462800A30013
:10079000EB189950873AA2408930FF300168114325
:1007A00001608421404649005850022EDCD12B00C4
:1007B0008D33FF3319680A431A60D5E715004D35AC
:1007C000FF35D550CBE73868FFF7B0FF0120404236
:1007D000D4E7C04628040020F8070000FEE7C04622
:1007E000F8B5C046F8BC08BC9E467047F8B5C04690
:1007F000F8BC08BC9E4670470000002000000000C6
:0808000008F9FF7F0100000070
:1008080000000000EC02002054030020BC0300207C
:1008180000000000000000000000000000000000D0
:1008280000000000000000000000000000000000C0
:1008380000000000000000000000000000000000B0
:1008480000000000000000000000000000000000A0
:100858000000000000000000000000000000000090
:100868000000000000000000000000000000000080
:100878000000000000000000000000000000000070
:100888000000000000000000000000000000000060
:100898000000000000000000000000000000000050
:1008A800000000000000000001000000000000003F
:1008B8000E33CDAB34126DE6ECDE05000B00000004
:1008C8000000000000000000000000000000000020
:1008D8000000000000000000000000000000000010
:1008E8000000000000000000000000000000000000
:1008F80000000000000000000000000000000000F0
:100C2800000000000000000054040020F50500004A
:080C3800E9000000C10000000A
:040000030000049D58
:00000001FF
